:020000040000FA
:1000000040030020091800000D180000CF02000076
:1000100000000000000000000000000000000000E0
:1000200000000000000000000000000011180000A7
:100030000000000000000000131800006F02000024
:10004000A50200008B050000000000000000000079
:100050000000000000000000171800000000000071
:100060000000000000000000171800000000000061
:1000700017180000171800001718000017180000C4
:100080001718000000000000000000000000000041
:100090000000000000000000000000000000000060
:1000A00017180000171800001718000000000000C3
:1000B00017180000171800005B0400001718000054
:1000C00000F002F800F03EF80CA030C80838241800
:1000D0002D18A246671EAB4654465D46AC4201D180
:1000E00000F030F87E460F3E0FCCB6460126334274
:1000F00000D0FB1AA246AB4633431847EC1C000065
:100100000C1D0000103A02D378C878C1FAD8520703
:1001100001D330C830C101D504680C6070470000BD
:100120000023002400250026103A01D378C1FBD813
:10013000520700D330C100D50B6070471FB51FBDFB
:1001400010B510BD01F0ACFC1146FFF7F7FF00F051
:1001500064F801F0C4FC03B4FFF7F2FF03BC01F044
:10016000CBFC000001480160014800472400064024
:100170000103FF1F37B514466946C8780006897821
:100180000904084369464978090208436946097821
:1001900008435B4908606946C87900068979090403
:1001A00008436946497909020843694609790843C1
:1001B000534948600822012001F0CCF8204600F0A5
:1001C000DFF83EBD10B504464E4800210160416095
:1001D00000204B49086048600822012001F0BAF86D
:1001E000204600F0CDF810BD02204749886200206B
:1001F000002809DB00BF00BFC206D20E01219140DA
:10020000424A116000BF00BF00BF04203E4908639E
:1002100070473F483F49886070471CB501F060FB5C
:1002200001F008FBFFF7F5FFFFF7DEFF00F0C6F86F
:1002300014E03948006902210840002801D000F08C
:100240008EFA04202F49887003C932220191009050
:10025000FFF790FF7D20C000FFF7B4FFE9E72F48CC
:100260002F494861FF2088610720086170472D48A9
:100270000078002815D02448C06A8007C00F0028E5
:1002800003D00020284908800BE027480088401C44
:1002900025490880084600885A2802D100202149B3
:1002A000087070470020002805DBC206D20E01212D
:1002B00091401E4A116000BF1348C06A002802D056
:1002C00001201849087003200F49C862704700BF19
:1002D00000BF00BF00BF00BFBFF34F8F00BF00BF14
:1002E00000BF13481349C86000BF00BF00BFBFF381
:1002F0004F8F00BF00BF00BF00BF00BFFDE7000081
:1003000008000020000000200000064000E100E09E
:1003100080AAAA0000A0044070000020FF5207003D
:1003200000E000E0240000202600002080E200E041
:100330000400FA0500ED00E018490A695021114156
:10034000484300BF0146401E0029FBD1704700B55D
:10035000034605E012481349C8606420FFF7ECFF2C
:1003600018465B1E0028F5D100BD0C490A695021D2
:100370001141484300BF0146401E0029FBD1704790
:1003800000B5034605E006480649C8606420FFF74B
:10039000ECFF18465B1E0028F5D100BD00000640AA
:1003A000AA55FA5A00000140002806D0042804D8B3
:1003B000F74A83009B18803BD967704770B500F0FF
:1003C0009BFF01F012FA01F08BFA01F033FAF148C9
:1003D000006810210843EF49086040210120FFF721
:1003E000E3FF80210220FFF7DFFFC0210320FFF79A
:1003F000DBFFE0210420FFF7D7FFE74C402020601F
:1004000080206060C020A060E020E060E34C4020DD
:10041000206008206060A060E0602061E048DC4966
:1004200048390860012000F002FB012000F0F2FAD8
:100430000220D749483948611F25ED0608200543A9
:100440003220FFF79DFFD248483805614004D0496B
:1004500008394862D348C86270BD10B51E2000F04C
:10046000E6FA2020D0490862D048006901218904B9
:100470000843CE4908611E20002815DBC206D20EB3
:1004800001219140CA4A116000BF00BF00BFBFF305
:100490004F8F00BF00BF00BF00BF00BF00BFBFF352
:1004A0006F8F00BF00BF00BF00BF10BD10B50020A0
:1004B000BD4988600846406820218843BA494860A1
:1004C0000A20FFF752FF0020B749C860202048618A
:1004D0000020C0430862202088611E2000F0A7FA97
:1004E0001E2000F097FA10BD0820A94948398860FD
:1004F00070470420A6494839886070470220A44903
:100500004839886070470120A149483988607047A0
:100510000120C0029E49483988607047012080024E
:100520009B49483988607047012040029849483902
:1005300088607047FF2001309549483988607047CE
:10054000042800D97047924A303A8300D118002815
:1005500008D18F4A483A526801231B061A40002AE4
:1005600000D0EFE7072252070A6000BFEAE710B5A4
:10057000904800680007000F052801D001F0B0F98D
:1005800001F058F900F099FA10BD10B580484838CC
:10059000446889487E4948398860002C02D1FFF7B9
:1005A000E6FF10BD600F400700281AD0E00FC0071B
:1005B000002804D0FFF7DBFF00F056FA7AE00120B4
:1005C00080072040002802D000F065FA72E0012088
:1005D0004007204000286DD0FFF7C9FF00F062FA05
:1005E00068E01F20C0042040002825D00120C0055D
:1005F0002040002802D000F067FD5BE0012080056C
:100600002040002802D000F0B8FD53E00120400552
:100610002040002802D000F008FE4BE00320C00478
:100620002040002846D00320C0045949483988603A
:100630000020FFF785FF3DE00F200002204000284A
:100640001CD0FF2001302040002801D0FFF772FFAE
:10065000012040022040002801D0FFF765FF012063
:1006600080022040002801D0FFF758FF0120C0027F
:10067000204000281ED0FFF74BFF1BE02007000F93
:10068000002817D0E007C00F002801D0FFF73BFF7C
:1006900002202040002801D0FFF730FF0420204036
:1006A000002801D0FFF725FF08202040002801D0B6
:1006B000FFF71AFF012080062040002809D03448A7
:1006C00048380068012189070840002801D000F05F
:1006D000FFF900BF65E739490A6939491141084600
:1006E00000BF0146401E0029FBD1704733490A690B
:1006F00034491141084600BF0146401E0029FBD184
:10070000704700B50620224948394861FFF7EEFFDF
:1007100005201F4948394861FFF7DDFF1C4848386C
:100720004069042188431A494839486100BD0020C6
:1007300017494839086001202049C86000BF1F4898
:10074000C068102108401028F9D102201B49086117
:100750000020086012480E4948390860704710B5FB
:100760001248006902218843104908611648007840
:10077000012800D110BD00242DE014481449C860A0
:1007800003484838406889030840002822D1F1E72F
:1007900048C0054000E005404C0000205C000020FF
:1007A000100000B004400000006004407000002011
:1007B00080E100E000200640FFFFFBFE0000064055
:1007C00080380100DC05000024000020AA55FA5AF8
:1007D00000000140641C9A488442CED39948406886
:1007E000012189070840002800D1C3E79548006926
:1007F0000921C9068843934908619348006980210B
:100800000840002801D0FFF751FE0A20FFF7ADFD98
:10081000FFF78DFF8B4840680121890708400028B9
:1008200002D1FFF7A4FEA5E704208849086030BF85
:10083000FFF79DFE844800698549084088420DD134
:10084000814800690121890488437F49086108467D
:100850008068012802D1FFF754FF8BE7FFF787FE7E
:1008600000BF87E77749C96B012282409143754AEF
:10087000D1637047042800D97047724A1832830048
:10088000D11800220A6000BFF6E7042800D970479B
:100890006C4A18328300D11812070A6000BFF6E7CD
:1008A00010B5042800D910BD664B183384001A19FE
:1008B00005235B070B43136000BFF4E761498031F8
:1008C000486002215F4A8032D16000BF5D498031BB
:1008D000C968022211400029F8D15A49803189683B
:1008E0005C4A1160704770B506460B46402B10D22B
:1008F000701E800058490858990844182046FFF790
:10090000DDFF9807C10E53480068C840C5B22846AD
:1009100070BD0020FCE770B506460B46102B0CD2CC
:10092000701E80004C490858990044182046FFF773
:10093000C5FF48480568284670BD0020FCE7414ACD
:1009400080325060916001223E4B8033DA6000BFFC
:100950003C4A8032D268D207D20F002AF8D17047C1
:10096000F8B506460C461746402C1BD2701E800078
:1009700039490858A108401800900098FFF79EFFD9
:1009800034480568A007C10EFF20884029468143EE
:100990000D46A007C10E38468840054329460098F9
:1009A000FFF7CDFFF8BDF0B505460C461646102CF6
:1009B00009D2681E800028490858A100471831460E
:1009C0003846FFF7BCFFF0BD1E4940318863022165
:1009D0001C4A8032116000BF1A4980310968022226
:1009E00011400029F8D117494031C96B1B4A1160E9
:1009F0007047144A40329063D1630122114B803317
:100A00001A6000BF0F4A80321268D207D20F002A44
:100A1000F8D17047002809DB00BF00BFC206D20E24
:100A2000012191400E4A116000BF00BF70470028AD
:100A300005DBC206D20E012191400A4A11607047BF
:100A4000E075090000C00540700000204020034010
:100A500080000400400000204C00002038000020EE
:100A600000E100E080E200E010B50020C043FE4954
:100A700088600120FD49086100208860FA49C8604B
:100A8000FFF75EFD012403E02046FFF7F3FE641C40
:100A9000042CF9D910BDF548006902210843F34937
:100AA00008617047F148006904210843EF49086173
:100AB00001204007EC4988607047EB480069092134
:100AC000C9060843E849086101204006886070476C
:100AD00001208006E4498860704770B5E34880686B
:100AE000012823D1E24D002402E000202855641C97
:100AF000042CFAD9DD480079032817DCDB4880781C
:100B0000002813D1D9490979DA4A5054D7490879CC
:100B1000FFF7A8FED5480069012109040843D3491D
:100B2000086100210846FFF7BBFE70BD0020FFF7FB
:100B300007FD00BFF9E710B5CC48806801281BD13C
:100B4000CA480078812817D1C8480079032813DCE7
:100B5000C6480079C7490C5C21460020FFF749FFD1
:100B6000C24800690121C9030843C0490861012145
:100B70000020FFF795FE10BD0020FFF7E1FC00BF4D
:100B8000F9E770B5BA4DB94800692021084000283E
:100B900051D0B648807800281DD1B44988600846F5
:100BA000006910210843B1490861012405E00120D2
:100BB00028552046FFF75EFE641C042CF7D9AB488D
:100BC0000069012109040843A84908610021084679
:100BD000FFF766FE70BDA548807801282BD1A34998
:100BE00088600846006910218843A04908610024F4
:100BF00013E000202855002C0ED02046FFF745FEBC
:100C000099480069611EC840C007C00F002803D082
:100C100000212046FFF744FE641C032CE9D99348C9
:100C20000069012109040843904908610021084630
:100C3000FFF736FECEE70020FFF782FC00BFC9E7D2
:100C400010B58A4881680020FFF7D3FE8748806886
:100C500001280AD1012403E02046FFF716FE641C98
:100C6000032CF9D90420FFF710FE00208249086008
:100C70007E4800690321890308437C4908610121FA
:100C80000020FFF70DFE10BD10B50020FFF758FC47
:100C900010BDF0B504461D062D0E2D061604FF27C7
:100CA0003F043E4035430E023F123E403543E6B21C
:100CB00035432846F0BDF8B5704804686B48C088D5
:100CC0006D490968884203D26848C0886A4908604B
:100CD00069480068002813D100210846FFF7E0FDAD
:100CE00067480068402803D100206549086039E062
:100CF0005D4880690121090708435B49886131E04B
:100D000000250DE0E378A27861782078FFF7C1FF35
:100D10000646A8003146FFF76CFE241D681CC5B2CC
:100D2000102DEFDB544800685549086052480068B0
:100D300040280ED340210020FFF7B2FD4F48006845
:100D400040304E4908604C48006840384A490860C5
:100D500008E049480068C1B20020FFF7A1FD00206B
:100D600045490860F8BD70B50025002428E03F48DB
:100D7000C1780C206043434A105C81421FD13B483C
:100D800001790C20604380184078814217D13748A0
:100D900081780C2060438018807881420FD10C202C
:100DA0006043114640188088334908600C20604336
:100DB00011464018806831490860012502E0641C32
:100DC000122CD4D300BF002D03D10020FFF7B8FBB5
:100DD00070BD264800690121C90308432349086101
:100DE000FFF769FF00BFF3E710B520480069202135
:100DF00088431E49086108460069402108431B4991
:100E0000086108468078002805D00846006920213E
:100E10000843164908611548807814490873084644
:100E200000690121090408431049086100210846AE
:100E3000FFF736FD10BD70B50C48007845066D0E05
:100E40000A48007880210840002802D00020FFF7DF
:100E500077FB002D21D105488078012842D1034835
:100E600000690949084311E000C0054070000020F6
:100E700010000020200000201C000020180000208E
:100E800028000020101D000080010100FE490861BB
:100E900000210846FFF704FD70BD022D1FD1FA485E
:100EA000807800281ED1F84800794406640E002C92
:100EB00018D0042C16D8F4488068012812D1F349C0
:100EC00008552046FFF73CFBEF480069E90308435B
:100ED000ED49086100210846FFF7E2FCDCE700204D
:100EE000FFF72EFB00BFD7E770B5E748007845064F
:100EF0006D0EE548007880210840002802D00020CF
:100F0000FFF71EFB002D14D1DF488078012845D162
:100F1000DD48006980218843DB4908610846006993
:100F2000DB490843D849086100210846FFF7B8FCAF
:100F300070BD022D32D1D448807800282ED1D248FD
:100F400000794406640E002C13D1CF48006920219B
:100F50000840002822D00020CC490870CA48006907
:100F6000E9030843C849086100210846FFF798FCD7
:100F7000DEE7042C12D8C448806801280ED1002076
:100F8000C2490855C0480069012109040843BE4907
:100F9000086100210846FFF783FCC9E700BFC7E7E7
:100FA00070B5B94800784406640EB74800788021CF
:100FB0000840802802D00020FFF7C2FA002C1AD186
:100FC000B148006980210840002804D00221002097
:100FD000FFF70FFD03E000210846FFF70AFDAA48CE
:100FE00000690121C9030843A749086102210020C3
:100FF000FFF756FC70BD012C1AD1A3488068012868
:101000002FD1A148407900282BD19F48007903288F
:1010100027DC00210846FFF7ECFC9B480069E10350
:1010200008439949086102210020FFF739FCE1E7F4
:10103000022C16D19448007945066D0E042D10D867
:101040009248465D31460020FFF7D3FC8E48006988
:10105000A10308438C49086102210020FFF720FC0E
:10106000C8E700BFC6E710B587484078030000F026
:101070004AFD0C070A250D25101316191C1F2225E1
:10108000FFF78EFF1EE0FFF72FFF1BE0FFF7D3FEF9
:1010900018E0FFF7A9FE15E0FFF765FE12E0FFF785
:1010A000F3FD0FE0FFF7CCFD0CE0FFF76AFD09E070
:1010B000FFF741FD06E0FFF710FD03E00020FFF71A
:1010C0003FFA00BF00BF10BD1CB53320C0047149FA
:1010D00088600020FFF7D9FB6E4840680121890431
:1010E0000840002840D1684800690321C9038843AB
:1010F000654908610020FFF767FC674800680190B8
:101100000420FFF761FC6448006800905E49019884
:101110000870FF21090201980840000A5A494870E6
:10112000FF21090401980840000C57498870019874
:10113000000EC87000980871FF210902009808404D
:10114000000A514948710098000CC880084604788C
:1011500060210C40002C02D1FFF785FF1CBD202C24
:1011600006D100F01DFBF9E70120800449498860A1
:101170000020FFF7E5F900BFF0E710B5012080057A
:10118000444988604548807C02281AD100204349A0
:10119000887408464069424988420FD13F488069B7
:1011A000404988420AD1002404E0A0000021FFF752
:1011B00020FC641C402CF8D3FEF7D4FF04203749F0
:1011C00088743148006940210840002813D02E4817
:1011D000006988432C4908610846007B2D49C86096
:1011E0000020FFF7ADF92848006901210904884370
:1011F0002549086110BD2448C088002810D0224825
:101200000069012109040840002809D1FFF753FDB6
:101210001D4800690121090488431B490861E9E769
:101220000020FFF78DF900BFE4E710B5012040056D
:10123000184988601948807C012811D1002409E0F0
:10124000A000FFF7C1FB14480168A2001348143046
:101250008150641C102CF3D30220104988742AE0BA
:101260000E48406D012149020840002823D00B4858
:10127000406D8843094948650020FFF7A5FB0648F3
:101280000068064908700FE0700000201000002080
:101290000001010000C0054038000020840000204B
:1012A000AA55A55AFF0033CC0846406D01214903D9
:1012B000084323494865234800690121C9030840C0
:1012C000002804D100210846FFF7EAFA0CE01E4886
:1012D0004068012109060840002805D11A488069A4
:1012E000C900084318498861164800690121C903EB
:1012F00088431449086110BD002003E00021134A0F
:101300001154401C0528F9D3002003E00021104AA5
:101310001154401C0428F9D300210A4A117051705D
:101320009170D17011715171D1809160117311461A
:101330000969012252041143024A116170470000F9
:10134000840000207000002000C005401000002034
:1013500020000020F7B5044615465348A100461862
:101360003068C00FC007002801D10220FEBD002C4C
:1013700003D0042C01D8402D01D90420F6E73068B1
:10138000400F40070121C907884224D14748005D2A
:1013900000281BD1A000464946183068A84201D257
:1013A0000520E3E7601E800042490F58019801685C
:1013B0003846FFF7C4FA01984168381DFFF7BFFAB5
:1013C000E9B22046FFF76CFA0020CFE72046FFF78E
:1013D000B7F80320CAE70120C8E73748008800288B
:1013E00006D001281BD0022830D0032859D144E070
:1013F00032480068FF2809D2FF20013030490860D8
:101400002E480068401C2D49086007E000202B4949
:10141000086029480088401C2749088042E0274886
:101420000068FF2809D2FF200004254908602348EE
:101430000068401C2149086007E000201F4908603F
:101440001D480088401C1C4908802BE01B48006890
:10145000FF2809D2FF2000021949086017480068D8
:10146000401C1649086007E0002014490860124833
:101470000088401C1049088014E010480068FF28CC
:1014800009D2012000040E4908600C480068401C85
:101490000A49086004E000200849086006490880FD
:1014A00000E000BF00BF704718C0054010000020DA
:1014B0005C0000204C0000202C00002030000020A8
:1014C0003400002010B5CD480078212825D1CC4823
:1014D000406D012109030843C9494865C74800799F
:1014E00002281ADCC5488078002806D10846406DDD
:1014F000032189028843C2494865C0488078C049B1
:101500004874BE480069012109040843BB490861C9
:1015100000210846FFF7C4F910BD0020FFF710F8BE
:1015200000BFF9E710B5B5480078212819D1B348B4
:101530000069012109040843B0490861B048406DC1
:101540000121C9020843AE494865AC480079012829
:1015500007DCAA48C078087400210846FFF7A0F904
:1015600010BD0020FEF7ECFF00BFF9E710B5012029
:10157000A349887400210846FFF792F910BD10B501
:101580009E4800690121090408439C4908619C4860
:10159000406D0121490208439949486500210846E8
:1015A000FFF77EF910BD10B594480078212815D1B9
:1015B00092480079002803D09048007903280DD183
:1015C0008E48C078022802D1FFF7D9FF10BD8B48A2
:1015D000C078032802D1FFF7C9FFF7E70020FEF724
:1015E000AFFF00BFF2E710B584480078A1281ED1F4
:1015F0008348406D012109030840002802D10120E1
:101600007F4948747D480079022810DC7C48417C81
:101610000020FFF7EEF9794800690121C90308436A
:101620007649086101210020FFF73AF910BD00203A
:10163000FEF786FF00BFF9E710B570480078A128D3
:101640001CD16F48406D0121C90208436C494865AF
:101650006A4800790043002810D10846017C002028
:10166000FFF7C7F9654800690121C90308436349C9
:10167000086101210020FFF713F910BD0020FEF7DB
:101680005FFF00BFF9E710B500205E4908605B48C6
:1016900000690121C9030843584908610521002058
:1016A000FFF7FEF810BD10B50020564908605348FA
:1016B00000690121C9030843504908610521002040
:1016C000FFF7EEF810BD10B500210846FFF7E8F867
:1016D00010BD10B54A4801780020FFF78AF9474845
:1016E00000690121C9030843444908610121002020
:1016F000FFF7D6F810BD10B50020424908603F48FA
:1017000000690121C90308433C4908610821002000
:10171000FFF7C6F810BD10B538480078A1283AD1B7
:1017200036488068012836D134480079002814D121
:101730003248C078012802D1FFF7DDFF10BD2F48E5
:10174000C078022802D1FFF7C4FFF7E72B48C07822
:10175000032820D1FFF7B7FFF0E7284800790128D8
:101760000AD12748407C012815D12448C078012897
:1017700011D1FFF798FFE1E72048007902280AD14C
:101780001F48407C012806D11C48C078012802D19E
:10179000FFF779FFD2E70020FEF7D2FE00BFCDE7CA
:1017A00010B516484078030000F0ADF90C19070A8F
:1017B0000D191919191910131619FFF7ACFF12E0BA
:1017C000FFF73AFF0FE0FFF70EFF0CE0FFF7EBFE2D
:1017D00009E0FFF7A7FE06E0FFF774FE03E0002034
:1017E000FEF7AEFE00BF00BF10BD7D2004490874A7
:1017F00001204874002088744865704770000020FC
:10180000840000201C00002006480047FEE7FEE799
:10181000FEE7FEE7FEE7FEE703480449024A044B01
:1018200070470000C100000040010020400300207C
:101830004001002010B53B48C068C006C00F00281A
:1018400002D001280DD107E036480068012802D1F6
:1018500035483649086005E07D20000233490860BC
:1018600000E000BF00BF2F4800694007400F0300A1
:1018700000F049F9080507090B0D0F111315012494
:101880000EE002240CE004240AE0082408E01024FE
:1018900006E0202404E0402402E0802400E000BFB1
:1018A00000BF21462148006800F04AF81F4908603F
:1018B000084600681E49884203D91E481E49086030
:1018C0000DE01A4800681D49884204D91948801E55
:1018D0001949086003E01748401F1749086010BD08
:1018E0001448401E14490860401C086001200D493E
:1018F000086000BF0B488068C007C00F0028F9D0FF
:1019000000200849C86000BF0648C0687021084030
:101910000028F9D103480069C008C000801C0149B3
:101920000861704700000640006CDC02480000209F
:1019300000366E010500FA5A00200640001BB70071
:10194000002203098B422CD3030A8B4211D30023BC
:101950009C464EE003460B433CD4002243088B4296
:1019600031D303098B421CD3030A8B4201D3944623
:101970003FE0C3098B4201D3CB01C01A5241830916
:101980008B4201D38B01C01A524143098B4201D3D0
:101990004B01C01A524103098B4201D30B01C01AFB
:1019A0005241C3088B4201D3CB00C01A5241830875
:1019B0008B4201D38B00C01A524143088B4201D3A2
:1019C0004B00C01A5241411A00D201465241104602
:1019D00070475DE0CA0F00D04942031000D3404277
:1019E000534000229C4603098B422DD3030A8B42AD
:1019F00012D3FC22890112BA030A8B420CD389014B
:101A000092118B4208D3890192118B4204D3890130
:101A10003AD0921100E08909C3098B4201D3CB016E
:101A2000C01A524183098B4201D38B01C01A524123
:101A300043098B4201D34B01C01A524103098B4227
:101A400001D30B01C01A5241C3088B4201D3CB0012
:101A5000C01A524183088B4201D38B00C01A5241F5
:101A6000D9D243088B4201D34B00C01A5241411ACC
:101A700000D20146634652415B10104601D34042FA
:101A8000002B00D54942704763465B1000D34042AB
:101A900001B50020C046C04602BD70477047704780
:101AA000754600F025F8AE46050069465346C00865
:101AB000C000854618B020B5FFF7AEFE60BC002719
:101AC0004908B6460026C0C5C0C5C0C5C0C5C0C50A
:101AD000C0C5C0C5C0C5403D49008D46704710B562
:101AE0000446C046C0462046FEF735FB10BD000048
:101AF00000487047DC00002001491820ABBEFEE71B
:101B000026000200704730B47446641E2578641CB9
:101B1000AB4204D3635D5B00E31830BC18471D463D
:101B2000F8E700001201000200000040450C43707D
:101B300004010102000105010906A101050719E0E0
:101B400029E71500250175019508810295017508A1
:101B50008101950575010908190129059102950171
:101B60007503910195067508150026FF00050719F4
:101B7000002A65008100C000410005010902A101A1
:101B800085010901A1000509190129031500250195
:101B900095057501810295017503810105010930E3
:101BA000093109381581257F750895038106C0C064
:101BB0003600050C0901A1018501150025019520BC
:101BC000750109B509B609B709CD09E009E209E3CC
:101BD00009E409E509E909EA0A52010A53010A542C
:101BE000010A55010A8A010A21020A23020A240273
:101BF0000A25020A26020A27020A2A020A92010A72
:101C000094010A83010A02020A03020A07020A185F
:101C1000020A1A0209B88102C005010980A10185E2
:101C2000021981298315002501750195038102752B
:101C30000595018101C00600FF0901A10185031A74
:101C4000F1002AF80015002501750895028102C0EF
:101C50009E000613FF0901A101150026FF0075086B
:101C6000954009028102090391020A00FFB102C0F6
:101C70001E0009026D00040100A0320904000001E9
:101C80000301010009211101000122410007058122
:101C900003080008090401000103010200092111E1
:101CA0000100012236000705820308000109040231
:101CB000000103000000092111010001229E00071C
:101CC000058303080008090403000103000000095C
:101CD0002111010001221E00070504030800010470
:101CE0000309040C0353004F004E0069005800160E
:101CF00003550053004200200044004500560049AF
:101D000000430045000A03440045004D004F000019
:101D10000100000012000000241B0000020000006F
:101D20006D000000721C00000300000004000000B1
:101D3000DF1C00000309000004000000DF1C00009D
:101D4000030001000C000000E31C00000309010077
:101D50000C000000E31C000003000200160000005D
:101D6000EF1C00000309020016000000EF1C000039
:101D700005000000070000008D1C000005000000A9
:101D8000070000008D1C0000210000000900000079
:101D9000841C000021010000090000009D1C0000BF
:101DA0002102000009000000B61C00002103000011
:101DB00009000000CF1C00002200000041000000CC
:101DC000361B000022010000360000007A1B0000D4
:101DD000220200009E000000B21B0000220300004F
:101DE0001E000000521C00000480000000000020C3
:101DF0004C00000004010000508000004C00002056
:101E0000F4020000200100000000000000000000BB
:101E100000000000000000000000000000000000C2
:101E200000000000000000000000000000000000B2
:101E300000000000000000000000000000000000A2
:101E40000000000000000000000000000000000092
:107FF00000000000000000000000000000BF00BF03
:1080000000BF00BF000000000000000000000000F2
:108010000000000000000000000000000000000060
:108020000000000000000000000000000000000050
:108030000000000000000000000000000000000040
:108040000000000000000000000000000000000030
:020000040000FA
:04FFFC005555AAAA03
:04000005000000C136
:00000001FF
