:020000040000FA
:1000000030030020211600002516000061020000C8
:1000100000000000000000000000000000000000E0
:100020000000000000000000000000002916000091
:1000300000000000000000002B160000010200007C
:10004000370200001F050000000000000000000053
:1000500000000000000000002F160000000000005B
:1000600000000000000000002F160000000000004B
:100070002F1600002F1600002F1600002F1600006C
:100080002F1600000000000000000000000000002B
:100090000000000000000000000000000000000060
:1000A0002F1600002F1600002F1600000000000081
:1000B0002F1600002F160000EF0300002F1600007F
:1000C00000F002F800F03EF80CA030C80838241800
:1000D0002D18A246671EAB4654465D46AC4201D180
:1000E00000F030F87E460F3E0FCCB6460126334274
:1000F00000D0FB1AA246AB4633431847581B0000FA
:10010000781B0000103A02D378C878C1FAD8520799
:1001100001D330C830C101D504680C6070470000BD
:100120000023002400250026103A01D378C1FBD813
:10013000520700D330C100D50B6070471FB51FBDFB
:1001400010B510BD01F0B8FB1146FFF7F7FF00F046
:100150002AF801F0D0FB03B4FFF7F2FF03BC01F073
:10016000D7FB000001480160014800472400064019
:100170000103FF1F0220464988620020002809DB96
:1001800000BF00BFC206D20E01219140414A11605A
:1001900000BF00BF00BF04203D49086370473E48D0
:1001A0003E498860704701F0A7FA01F04FFAFFF767
:1001B000F6FF00203A4988603A4988603A498860E9
:1001C0003649886036494860364948603649486053
:1001D00032494860FFF7CEFF00F0BAF807E0334835
:1001E000006902210840002801D000F082FAF6E7F9
:1001F0002F4830494861FF20886107200861704717
:100200002D480078002815D02148C06A8007C00F0B
:10021000002803D00020294908800BE027480088E7
:10022000401C26490880084600885A2802D1002030
:100230002149087070470020002805DBC206D20E55
:10024000012191401E4A116000BF1148C06A002878
:1002500002D001201849087003200D49C862704778
:1002600000BF00BF00BF00BF00BFBFF34F8F00BF84
:1002700000BF00BF13481449C86000BF00BF00BFE3
:10028000BFF34F8F00BF00BF00BF00BF00BFFDE73F
:100290000000064000E100E080AAAA0000A004409F
:1002A00000400440006004400080044060000020E2
:1002B000FF52070000E000E01400002016000020BC
:1002C00080E200E00400FA0500ED00E018490A6948
:1002D00050211141484300BF0146401E0029FBD177
:1002E000704700B5034605E012481349C860642012
:1002F000FFF7ECFF18465B1E0028F5D100BD0C4946
:100300000A6950211141484300BF0146401E00299F
:10031000FBD1704700B5034605E006480649C860B2
:100320006420FFF7ECFF18465B1E0028F5D100BDE6
:1003300000000640AA55FA5A00000140002806D0E5
:10034000042804D8F74A83009B18803BD96770477C
:1003500070B500F0A2FF01F053F901F0CDF901F002
:1003600075F9F148006810210843EF490860402101
:100370000120FFF7E3FF80210220FFF7DFFFC0210C
:100380000320FFF7DBFFE0210420FFF7D7FFE74C56
:100390004020206080206060C020A060E020E060FD
:1003A000E34C4020206008206060A060E060206195
:1003B000E048DC4948390860012000F002FB0120D8
:1003C00000F0F2FA0220D749483948611F25ED06AE
:1003D000082005433220FFF79DFFD24848380561C9
:1003E0004004D04908394862D348C86270BD10B58E
:1003F0001E2000F0E6FA2020D0490862D0480069AB
:10040000012189040843CE4908611E20002815DB1C
:10041000C206D20E01219140CA4A116000BF00BF3E
:1004200000BFBFF34F8F00BF00BF00BF00BF00BFC2
:1004300000BFBFF36F8F00BF00BF00BF00BF10BD84
:1004400010B50020BD4988600846406820218843D7
:10045000BA4948600A20FFF752FF0020B749C86038
:10046000202048610020C0430862202088611E20AF
:1004700000F0A7FA1E2000F097FA10BD0820A94945
:100480004839886070470420A64948398860704719
:100490000220A4494839886070470120A1494839A1
:1004A000886070470120C0029E49483988607047C3
:1004B000012080029B494839886070470120400232
:1004C0009849483988607047FF200130954948397C
:1004D00088607047042800D97047924A303A8300F8
:1004E000D118002808D18F4A483A526801231B06C8
:1004F0001A40002A00D0EFE7072252070A6000BF27
:10050000EAE710B5904800680007000F052801D001
:1005100001F0F2F801F09AF800F099FA10BD10B568
:1005200080484838446889487E4948398860002CAA
:1005300002D1FFF7E6FF10BD600F400700281AD078
:10054000E00FC007002804D0FFF7DBFF00F056FAE9
:100550007AE0012080072040002802D000F065FAF0
:1005600072E001204007204000286DD0FFF7C9FF4E
:1005700000F062FA68E01F20C0042040002825D067
:100580000120C0052040002802D000F06FFD5BE094
:10059000012080052040002802D000F0C0FD53E07B
:1005A000012040052040002802D000F010FE4BE062
:1005B0000320C0042040002846D00320C00459492D
:1005C000483988600020FFF785FF3DE00F200002DA
:1005D000204000281CD0FF2001302040002801D0FE
:1005E000FFF772FF012040022040002801D0FFF7F2
:1005F00065FF012080022040002801D0FFF758FF4E
:100600000120C002204000281ED0FFF74BFF1BE056
:100610002007000F002817D0E007C00F002801D0E6
:10062000FFF73BFF02202040002801D0FFF730FFFA
:1006300004202040002801D0FFF725FF082020409B
:10064000002801D0FFF71AFF012080062040002873
:1006500009D034484838006801218907084000283B
:1006600001D000F0FFF900BF65E739490A6939494F
:100670001141084600BF0146401E0029FBD17047CA
:1006800033490A6934491141084600BF0146401EFA
:100690000029FBD1704700B506202249483948613E
:1006A000FFF7EEFF05201F4948394861FFF7DDFFDE
:1006B0001C4848384069042188431A494839486130
:1006C00000BD002017494839086001202049C86052
:1006D00000BF1F48C068102108401028F9D102202F
:1006E0001B4908610020086012480E49483908601B
:1006F000704710B51248006902218843104908610B
:1007000016480078012800D110BD00242DE01448BF
:100710001449C860034848384068890308400028E5
:1007200022D1F1E748C0054000E005403C00002030
:100730004C000020100000B00440000000600440A5
:100740006000002080E100E000200640FFFFFBFE8B
:100750000000064080380100DC0500001400002085
:10076000AA55FA5A00000140641C9A488442CED32C
:1007700099484068012189070840002800D1C3E753
:10078000954800690921C90688439349086193483F
:10079000006980210840002801D0FFF751FE0A209F
:1007A000FFF7ADFDFFF78DFF8B48406801218907FA
:1007B0000840002802D1FFF7A4FEA5E704208849DD
:1007C000086030BFFFF79DFE8448006985490840F6
:1007D00088420DD1814800690121890488437F49FD
:1007E000086108468068012802D1FFF754FF8BE7B3
:1007F000FFF787FE00BF87E77749C96B0122824078
:100800009143754AD1637047042800D97047724AF2
:1008100018328300D11800220A6000BFF6E70428CE
:1008200000D970476C4A18328300D11812070A6049
:1008300000BFF6E710B5042800D910BD664B183389
:1008400084001A1905235B070B43136000BFF4E70C
:1008500061498031486002215F4A8032D16000BF27
:100860005D498031C968022211400029F8D15A49F6
:10087000803189685C4A1160704770B506460B4646
:10088000402B10D2701E800058490858990844180F
:100890002046FFF7DDFF9807C10E53480068C840A7
:1008A000C5B2284670BD0020FCE770B506460B4671
:1008B000102B0CD2701E80004C4908589900441827
:1008C0002046FFF7C5FF48480568284670BD002050
:1008D000FCE7414A80325060916001223E4B8033F8
:1008E000DA6000BF3C4A8032D268D207D20F002AB9
:1008F000F8D17047F8B506460C461746402C1BD277
:10090000701E800039490858A108401800900098CE
:10091000FFF79EFF34480568A007C10EFF208840FE
:10092000294681430D46A007C10E3846884005433D
:1009300029460098FFF7CDFFF8BDF0B505460C46F7
:100940001646102C09D2681E800028490858A100BC
:10095000471831463846FFF7BCFFF0BD1E4940310D
:10096000886302211C4A8032116000BF1A4980311D
:100970000968022211400029F8D117494031C96B9A
:100980001B4A11607047144A40329063D1630122C0
:10099000114B80331A6000BF0F4A80321268D207B1
:1009A000D20F002AF8D17047002809DB00BF00BF32
:1009B000C206D20E012191400E4A116000BF00BF55
:1009C0007047002805DBC206D20E012191400A4A79
:1009D00011607047E075090000C00540600000200C
:1009E0004020034080000400300000203C00002034
:1009F0002800002000E100E080E200E010B50020C7
:100A0000C043FE4988600120FD49086100208860DC
:100A1000FA49C860FFF75EFD012403E02046FFF7B6
:100A2000F3FE641C042CF9D910BDF54800690221BD
:100A30000843F34908617047F148006904210843FD
:100A4000EF49086101204007EC4988607047EB4896
:100A500000690921C9060843E849086101204006E8
:100A60008860704701208006E4498860704770B54F
:100A7000E3488068012823D1E24D002402E00020F1
:100A80002855641C042CFAD9DD480079022817DCAB
:100A9000DB488078002813D1D9490979DA4A5054C3
:100AA000D7490879FFF7A8FED54800690121090454
:100AB0000843D349086100210846FFF7BBFE70BD1B
:100AC0000020FFF707FD00BFF9E710B5CC488068AC
:100AD00001281BD1CA480078812817D1C84800795D
:100AE000022813DCC6480079C7490C5C2146002067
:100AF000FFF749FFC24800690121C9030843C04903
:100B0000086101210020FFF795FE10BD0020FFF7CE
:100B1000E1FC00BFF9E770B5BA4DB9480069202182
:100B20000840002851D0B648807800281DD1B4492B
:100B300088600846006910210843B1490861012412
:100B400005E0012028552046FFF75EFE641C042CBA
:100B5000F7D9AB480069012109040843A849086195
:100B600000210846FFF766FE70BDA5488078012881
:100B70002BD1A34988600846006910218843A04909
:100B80000861002413E000202855002C0ED02046D8
:100B9000FFF745FE99480069611EC840C007C00FB5
:100BA000002803D000212046FFF744FE641C022CDD
:100BB000E9D9934800690121090408439049086173
:100BC00000210846FFF736FECEE70020FFF782FC43
:100BD00000BFC9E710B58A4881680020FFF7D3FE3F
:100BE0008748806801280AD1012403E02046FFF7E6
:100BF00016FE641C022CF9D90420FFF710FE002019
:100C0000824908607E4800690321890308437C49C2
:100C1000086101210020FFF70DFE10BD10B5002076
:100C2000FFF758FC10BDF0B504461D062D0E2D062D
:100C30001604FF273F043E4035430E023F123E405C
:100C40003543E6B235432846F0BDF8B57048046830
:100C50006B48C0886D490968884203D26848C088DB
:100C60006A49086069480068002813D100210846D5
:100C7000FFF7E0FD67480068402803D10020654980
:100C8000086039E05D4880690121090708435B4934
:100C9000886131E000250DE0E378A2786178207862
:100CA000FFF7C1FF0646A8003146FFF76CFE241D82
:100CB000681CC5B2102DEFDB544800685549086028
:100CC0005248006840280ED340210020FFF7B2FDB3
:100CD0004F48006840304E4908604C480068403832
:100CE0004A49086008E049480068C1B20020FFF79F
:100CF000A1FD002045490860F8BD70B5002500241D
:100D000028E03F48C1780C206043434A105C814290
:100D10001FD13B4801790C20604380184078814204
:100D200017D1374881780C20604380188078814241
:100D30000FD10C2060431146401880883349086069
:100D40000C20604311464018806831490860012535
:100D500002E0641C122CD4D300BF002D03D100206C
:100D6000FFF7B8FB70BD264800690121C90308439D
:100D700023490861FFF769FF00BFF3E710B520487A
:100D80000069202188431E49086108460069402106
:100D900008431B49086108468078002805D00846AA
:100DA00000692021084316490861154880781449D4
:100DB00008730846006901210904084310490861C5
:100DC00000210846FFF736FD10BD70B50C480078CD
:100DD00045066D0E0A48007880210840002802D0A0
:100DE0000020FFF777FB002D21D1054880780128EE
:100DF00045D1034800690949084311E000C0054096
:100E00006000002000000020100000200C000020E6
:100E10000800002018000020941B00008001010041
:100E2000F849086100210846FFF704FD70BD022D56
:100E300022D1F4488078002821D1F2480079440674
:100E4000640E002C01D0022C01D9042C17D1ED48DE
:100E50008068012813D1EC4908552046FFF73AFB7A
:100E6000E8480069012109040843E64908610021B6
:100E70000846FFF7DFFCD9E70020FFF72BFB00BF98
:100E8000D4E770B5DF48007845066D0EDD48007880
:100E900080210840002802D00020FFF71BFB002D16
:100EA00014D1D8488078012847D1D64800698021DC
:100EB0008843D449086108460069D4490843D149A8
:100EC000086100210846FFF7B5FC70BD022D34D142
:100ED000CC488078002830D1CA4800794406640E96
:100EE000002C13D1C748006920210840002824D0D5
:100EF0000020C5490870C3480069E9030843C14997
:100F0000086100210846FFF795FCDEE7022C01D9B5
:100F1000042C12D1BB48806801280ED10020BA49A8
:100F20000855B8480069012109040843B54908611A
:100F300000210846FFF77EFCC7E700BFC5E770B594
:100F4000B048007845066D0EAE4800788021084014
:100F5000802802D00020FFF7BDFA002D1AD1A94841
:100F6000006980210840002804D002210020FFF7FA
:100F70000AFD03E000210846FFF705FDA1480069CE
:100F80000121C90308439F49086102210020FFF79E
:100F900051FC70BD012D1AD19A488068012832D1C8
:100FA0009848407900282ED19648007902282ADCFA
:100FB00000210846FFF7E7FC92480069E90308436F
:100FC0009049086102210020FFF734FCE1E7022D7F
:100FD00019D18C4800794406640E022C01D9042CE6
:100FE00011D18948065D31460020FFF7CCFC8548C9
:100FF00000690121C90308438249086102210020D8
:10100000FFF718FCC5E700BFC3E710B57D4840787F
:10101000030000F084FC0C070A250D251013161997
:101020001C1F2225FFF78BFF1EE0FFF72AFF1BE0A6
:10103000FFF7CBFE18E0FFF7A1FE15E0FFF75DFE1E
:1010400012E0FFF7EBFD0FE0FFF7C4FD0CE0FFF748
:1010500062FD09E0FFF739FD06E0FFF708FD03E058
:101060000020FFF737FA00BF00BF10BD1CB53320CA
:10107000C004674988600020FFF7D1FB64484068DE
:10108000012189040840002840D15E4800690321FD
:10109000C90388435B4908610020FFF75FFC5D4896
:1010A000006801900420FFF759FC5A48006800903E
:1010B000544901980870FF21090201980840000A6C
:1010C00050494870FF21090401980840000C4D491F
:1010D00088700198000EC87000980871FF210902FD
:1010E00000980840000A474948710098000CC880E1
:1010F0000846047860210C40002C02D1FFF785FFE0
:101100001CBD202C06D100F046FAF9E7012080042E
:101110003F4988600020FFF7DDF900BFF0E710B518
:10112000012080053A4988603B48807C02281AD11A
:1011300000203949887408464069384988420FD1EF
:1011400035488069364988420AD1002404E0A0006D
:101150000021FFF718FC641C402CF8D3FFF702F8BD
:1011600004202D4988742748006940210840002840
:1011700013D0244800698843224908610846007B4F
:101180002349C8600020FFF7A5F91E480069012126
:10119000090488431B49086110BD1A48C08800280B
:1011A00010D018480069012109040840002809D11D
:1011B000FFF74BFD134800690121090488431149D9
:1011C0000861E9E70020FFF785F900BFE4E710B503
:1011D000012040050E4988600F48807C012821D1FC
:1011E000002409E0A000FFF7B9FB0A480168A2004B
:1011F000094814308150641C102CF3D30220064996
:10120000887429E060000020000000200001010037
:1012100000C005402800002074000020AA55A55AEF
:10122000FF0033CC2E48406D0121490208400028C0
:1012300012D02B48406D8843294948650020FFF7AC
:101240008DFB28480068264908700846406D01213A
:101250004903084322494865234800690121C9031D
:101260000840002804D100210846FFF7E3FA0CE00B
:101270001E484068012109060840002805D11B4886
:101280008069C9000843194988611748006901212C
:10129000C90388431449086110BD002003E0002100
:1012A000134A1154401C0528F9D3002003E0002103
:1012B000104A1154401C0428F9D300210A4A117025
:1012C00051709170D17011715171D1809160117311
:1012D00011460969012252041143034A1161704702
:1012E00074000020280000206000002000C005409D
:1012F000000000201000002010B5C648007821280A
:1013000025D1C548406D012109030843C2494865FC
:10131000C048007901281ADCBE488078002806D130
:101320000846406D032189028843BB494865B94896
:101330008078B9494874B748006901210904084315
:10134000B449086100210846FFF774FA10BD002077
:10135000FFF7C0F800BFF9E710B5AE4800782128C4
:1013600019D1AC480069012109040843A949086161
:10137000A948406D0121C9020843A7494865A5480D
:101380000079012807DCA348C078087400210846CA
:10139000FFF750FA10BD0020FFF79CF800BFF9E7F7
:1013A00010B501209C49887400210846FFF742FAD5
:1013B00010BD10B5974800690121090408439549FB
:1013C00008619548406D01214902084392494865EA
:1013D00000210846FFF72EFA10BD10B58D480078A1
:1013E000212815D18B480079002803D0894800793D
:1013F00002280DD18748C078022802D1FFF7D9FF13
:1014000010BD8448C078032802D1FFF7C9FFF7E771
:101410000020FFF75FF800BFF2E710B57D480078C5
:10142000A1281ED17C48406D0121090308400028F5
:1014300002D101207849487476480079012810DCEF
:101440007548417C0020FFF79EFA7248006901212F
:10145000C90308436F49086101210020FFF7EAF939
:1014600010BD0020FFF736F800BFF9E710B5694856
:101470000078A1281CD16848406D0121C9020843A9
:1014800065494865634800790043002810D1084643
:10149000017C0020FFF777FA5E4800690121C9034B
:1014A00008435C49086101210020FFF7C3F910BD22
:1014B0000020FFF70FF800BFF9E710B500205749EB
:1014C0000860544800690121C90308435149086173
:1014D00005210020FFF7AEF910BD10B50021084628
:1014E000FFF7A8F910BD10B54B4801780020FFF7B1
:1014F0004AFA484800690121C9030843454908617F
:1015000001210020FFF796F910BD10B500204349D6
:101510000860404800690121C90308433D4908614A
:1015200008210020FFF786F910BD10B53948007872
:10153000A1282BD137488068012827D13548007968
:10154000002814D13348C078012802D1FFF7DDFF0D
:1015500010BD3048C078022802D1FFF7C4FFF7E77A
:101560002C48C078032811D1FFF7B7FFF0E72948CE
:10157000007901280AD12848407C012806D1254855
:10158000C078012802D1FFF798FFE1E70020FEF7BD
:10159000A1FF00BFDCE710B51E484078030000F053
:1015A000BEF90C19070A0D19191919191013161972
:1015B000FFF7BBFF12E0FFF759FF0FE0FFF72DFF2A
:1015C0000CE0FFF70AFF09E0FFF7C6FE06E0FFF7B1
:1015D00093FE03E00020FEF77DFF00BF00BF10BDBB
:1015E00010B500200D4908600A4800690121C903AF
:1015F00008430849086105210020FFF71BF910BDC9
:101600007D200549087401204874002088744865CD
:101610007047000060000020740000200C000020D3
:1016200006480047FEE7FEE7FEE7FEE7FEE7FEE7C7
:1016300003480449024A044B70470000C1000000FF
:1016400030010020300300203001002010B53B485D
:10165000C068C006C00F002802D001280DD107E0E5
:1016600036480068012802D135483649086005E04F
:101670007D2000023349086000E000BF00BF2F4812
:1016800000694007400F030000F049F90805070909
:101690000B0D0F11131501240EE002240CE004249D
:1016A0000AE0082408E0102406E0202404E0402496
:1016B00002E0802400E000BF00BF2146214800680E
:1016C00000F04AF81F490860084600681E49884231
:1016D00003D91E481E4908600DE01A4800681D49DC
:1016E000884204D91948801E1949086003E0174848
:1016F000401F1749086010BD1448401E1449086077
:10170000401C086001200D49086000BF0B4880683C
:10171000C007C00F0028F9D000200849C86000BFEA
:101720000648C068702108400028F9D103480069C4
:10173000C008C000801C01490861704700000640D5
:10174000006CDC023800002000366E010500FA5AF9
:1017500000200640001BB700002203098B422CD357
:10176000030A8B4211D300239C464EE003460B43F1
:101770003CD4002243088B4231D303098B421CD353
:10178000030A8B4201D394463FE0C3098B4201D345
:10179000CB01C01A524183098B4201D38B01C01A7D
:1017A000524143098B4201D34B01C01A52410309F4
:1017B0008B4201D30B01C01A5241C3088B4201D3A3
:1017C000CB00C01A524183088B4201D38B00C01A50
:1017D000524143088B4201D34B00C01A5241411A77
:1017E00000D201465241104670475DE0CA0F00D05A
:1017F0004942031000D34042534000229C46030953
:101800008B422DD3030A8B4212D3FC22890112BAD8
:10181000030A8B420CD3890192118B4208D38901B0
:1018200092118B4204D389013AD0921100E08909C8
:10183000C3098B4201D3CB01C01A524183098B42A9
:1018400001D38B01C01A524143098B4201D34B0192
:10185000C01A524103098B4201D30B01C01A5241F5
:10186000C3088B4201D3CB00C01A524183088B427C
:1018700001D38B00C01A5241D9D243088B4201D305
:101880004B00C01A5241411A00D2014663465241F0
:101890005B10104601D34042002B00D549427047EF
:1018A00063465B1000D3404201B50020C046C046ED
:1018B00002BD704770477047754600F025F8AE4688
:1018C000050069465346C008C000854618B020B5DB
:1018D000FFF7AEFE60BC00274908B6460026C0C52B
:1018E000C0C5C0C5C0C5C0C5C0C5C0C5C0C5403DD8
:1018F00049008D46704710B50446C046C046204694
:10190000FEF729FC10BD000000487047CC00002005
:1019100001491820ABBEFEE726000200704730B434
:101920007446641E2578641CAB4204D3635D5B007F
:10193000E31830BC18471D46F8E70000120100020A
:1019400000000040450C4470040101020001050143
:101950000906A101050719E029E715002501750110
:1019600095088102950175088101950575010908A1
:1019700019012905910295017503910195067508D4
:10198000150026FF00050719002A65008100C00028
:10199000410005010902A10185010901A100050914
:1019A000190129031500250195057501810295018D
:1019B0007503810105010930093109381581257F39
:1019C000750895038106C0C005010980A101850243
:1019D00005011981298315002501950375018102EF
:1019E000950175058101C0050C0901A1018503154B
:1019F00000250109B509B609B709CD09E009E209D1
:101A0000E309E409E509E909EA0A52010A53010A6E
:101A100054010A55010A8A010A21020A23020A24F2
:101A2000020A25020A26020A27020A2A020A92014B
:101A30000A94010A83010A02020A03020A07020A3F
:101A400018020A1A0209B8750195208102C0BC006B
:101A5000050C0901A10185011500250195207501DD
:101A600009B509B609B709CD09E009E209E309E4B6
:101A700009E509E909EA0A52010A53010A54010A6F
:101A800055010A8A010A21020A23020A24020A25B0
:101A9000020A26020A27020A2A020A92010A94016D
:101AA0000A83010A02020A03020A07020A18020A4A
:101AB0001A0209B88102C005010980A10185021935
:101AC000812983150025017501950381027505950E
:101AD000018101C00600FF0901A10185031AF1007F
:101AE0002AF80015002501750895028102C09E00A4
:101AF0000613FF0901A101150026FF007508954096
:101B000009028102090391020A00FFB102C01E000E
:101B100009025400030100A032090400000103017E
:101B2000010009211101000122410007058103087C
:101B3000000809040100010301020009211101004C
:101B40000122BC000705820308000109040200010C
:101B500003000000092111010001221E00070504F5
:101B600003080001040309040C0353004F004E0056
:101B7000690058001603550053004200200044003D
:101B8000450056004900430045000A034400450053
:101B90004D004F0001000000120000003C19000041
:101BA0000200000054000000101B000003000000B1
:101BB00004000000641B0000030900000400000092
:101BC000641B0000030001000C000000681B000003
:101BD000030901000C000000681B00000300020064
:101BE00016000000741B000003090200160000002C
:101BF000741B000005000000070000002B1B000004
:101C000005000000070000002B1B00002100000061
:101C100009000000221B0000210100000900000053
:101C20003B1B00002102000009000000541B0000C3
:101C300022000000410000004E19000022010000B7
:101C4000BC00000092190000220200001E000000EB
:101C5000F01A000004800000000000203C0000009A
:101C600004010000408000003C000020F40200005D
:101C70002001000000000000000000000000000043
:101C80000000000000000000000000000000000054
:101C90000000000000000000000000000000000044
:101CA0000000000000000000000000000000000034
:101CB0000000000000000000000000000000000024
:107FF00000000000000000000000000000BF00BF03
:1080000000BF00BF000000000000000000000000F2
:108010000000000000000000000000000000000060
:108020000000000000000000000000000000000050
:108030000000000000000000000000000000000040
:020000040000FA
:04FFFC005555AAAA03
:04000005000000C136
:00000001FF
