:020000040000FA
:1000000010040020F91C0000FD1C00003905000050
:1000100000000000000000000000000000000000E0
:10002000000000000000000000000000011D0000B2
:100030000000000000000000031D00008309000014
:100040000F0500007F0B0000000000000000000012
:100050000000000000000000071D0000000000007C
:100060000000000000000000071D0000000000006C
:10007000071D0000071D0000071D0000071D0000F0
:10008000071D00000000000000000000000000004C
:100090000000000000000000000000000000000060
:1000A000071D0000071D0000071D000000000000E4
:1000B000071D0000071D0000071D0000071D0000B0
:1000C00000F002F800F03EF80CA030C80838241800
:1000D0002D18A246671EAB4654465D46AC4201D180
:1000E00000F030F87E460F3E0FCCB6460126334274
:1000F00000D0FB1AA246AB46334318473422000017
:1001000054220000103A02D378C878C1FAD85207B6
:1001100001D330C830C101D504680C6070470000BD
:100120000023002400250026103A01D378C1FBD813
:10013000520700D330C100D50B6070471FB51FBDFB
:1001400010B510BD01F050FF1146FFF7F7FF00F0AA
:10015000A0F901F068FF03B4FFF7F2FF03BC01F060
:100160006FFF00000148016001480047240006407D
:100170000103FF1FFC490979FB4A51711146C978F7
:10018000117111468978D1701146497891701146E4
:100190000978517011460870704737B514466946A2
:1001A000C878000689780904084369464978090235
:1001B0000843694609780843EC4908606946C879EC
:1001C0000006897909040843694649790902084308
:1001D000694609790843E54948600822012001F091
:1001E0009DFB0546002C02D0204600F0F7FB284678
:1001F0003EBD70B50446DE4800210160416000202C
:10020000DA49086048600822012001F087FB0546B2
:10021000002C02D0204600F0E1FB284670BD0020F3
:10022000C043D4494860D4494860D448D449486060
:10023000D448D54948600020CE490860CE490860BE
:10024000CF490860D049086070470020C94908605C
:10025000C9490860CA490860CB490860704710B5B1
:100260000020CA490870CA490870E8E0FFF7EDFFAE
:10027000C74A12785200C74BD2185178C44A127834
:100280005200985C00F0E5F9052000F09CFBBC48AA
:1002900000680004C00F00280BD00120BB49087083
:1002A000BB49097806225143BB4A505CFFF762FF05
:1002B000CAE0B54800680005C00F00280CD0B4495A
:1002C000097806225143B44A89184878FFF752FF4B
:1002D0000120AE490870B7E0AB4800684005C00F88
:1002E00000280CD0AA49097806225143AA4A891845
:1002F0008878FFF73FFF0120A4490870A4E0A248D6
:1003000000688005C00F00280CD0A149097806229A
:100310005143A14A8918C878FFF72CFF01209B4957
:10032000087091E098480068C005C00F00282BD0E5
:1003300097480078062148439749401800790228D9
:1003400008D0934800780621484393494018007923
:1003500020280CD1864800788D490978062251431F
:100360008D4A891809790843814908700CE00120F9
:10037000864908708649097806225143864A8918B9
:100380000879FFF7F7FE5FE07F4800680006C00FBE
:1003900000284FD07E480078062148437E49401807
:1003A000407901282CD07A480078062148437A49C0
:1003B00040184079102823D075480078062148431A
:1003C00075494018407904281AD0714800780621F0
:1003D0004843714940184079402811D06C48007852
:1003E000062148436C4940184079082808D06848DD
:1003F00000780621484368494018407980280CD18C
:100400005B4800786249097806225143624A89189C
:1004100049790843564908700CE05D49097806227D
:1004200051435D4A89184879FFF7A4FE01205749D6
:10043000087009E056480078401C55490870544837
:100440000078152800DA11E700BF5048007800282E
:1004500005D10120514908700020FFF78BFE10BD27
:1004600002204F4988620020002809DB00BF00BF3E
:10047000C206D20E012191404A4A116000BF00BF5E
:1004800000BF042046490863704747483E498860DA
:1004900070471CB501F09CFC01F044FCFFF7F5FF30
:1004A000FFF7DEFF00F0B8FAFFF7B9FE00F058FAE8
:1004B00006212D4801F0E6FC28E03C4800690121B6
:1004C00009040840002821D0FFF7C9FE2F48007812
:1004D00001280ED1244800782549887003C90022DC
:1004E00001910090FFF759FE002802D00120304909
:1004F00008702A480078012805D10020FFF779FE0E
:10050000002026490870FF2028498861D5E700208F
:10051000002805DBC206D20E01219140254A116058
:1005200000BF1F48C06A002802D00120224908707D
:1005300003201B49C862704700BF00BF00BF00BF57
:1005400000BFBFF34F8F00BF00BF00BF1B481C4957
:10055000C86000BF00BF00BFBFF34F8F00BF00BF28
:1005600000BF00BF00BFFDE7100000200800002012
:10057000000000200040044000600440FF7FFF0FA7
:100580000080044078F0000000A004401600002025
:100590001A0000201B00002051000020170000203E
:1005A0000000064000E100E080AAAA0000E000E0B0
:1005B0001900002080E200E0F40000200400FA05A9
:1005C00000ED00E030B503460020002B06D0012BE3
:1005D00012D0022B1ED0032B38D129E0DC4C6068EE
:1005E00001248C400546A543284614468C402043F0
:1005F000D74C606060682AE0D64C606801248C406B
:100600000546A543284614468C402043D14C6060E3
:1006100060681CE0D04C606801248C400546A5430E
:10062000284614468C402043CB4C606060680EE046
:10063000CA4C606801248C400546A54328461446F0
:100640008C402043C54C6060606800E000BF00BF84
:1006500030BD002806D001280CD0022812D0032873
:1006600020D117E0BA4A526A01238B401A43B84B93
:100670005A6218E0B74A526A01238B401A43B54BBD
:100680005A6210E0B44A526A01238B401A43B24BBB
:100690005A6208E0B14A526A01238B401A43AF4BB9
:1006A0005A6200E000BF00BF7047002806D0012852
:1006B0000CD0022812D0032820D117E0A44A926A55
:1006C00001238B401A43A24B9A6218E0A14A926A16
:1006D00001238B401A439F4B9A6210E09E4A926A14
:1006E00001238B401A439C4B9A6208E09B4A926A12
:1006F00001238B401A43994B9A6200E000BF00BF70
:10070000704770B504460020914DE8680125A5406A
:100710000646AE4330460D46A54028438C4DE86062
:1007200028690125A5400646AE4330461546A5403A
:100730002843874D286168690125A5400646AE43D8
:1007400030461D46A5402843814D686170BD70B597
:10075000044600207F4DE8680125A5400646AE43CB
:1007600030460D46A54028437A4DE86028690125AA
:10077000A5400646AE4330461546A5402843754D74
:10078000286168690125A5400646AE4330461D46EE
:10079000A54028436F4D686170BD70B504460020C8
:1007A0006D4DE8680125A5400646AE4330460D462E
:1007B000A5402843684DE86028690125A540064604
:1007C000AE4330461546A5402843634D286168690D
:1007D0000125A5400646AE4330461D46A5402843A8
:1007E0005D4D686170BD70B5044600205B4DE868E2
:1007F0000125A5400646AE4330460D46A540284398
:10080000564DE86028690125A5400646AE433046AE
:100810001546A5402843514D286168690125A5402A
:100820000646AE4330461D46A54028434B4D686101
:1008300070BD002806D0012809D002280CD003285A
:1008400014D10EE001228A40414B1A620FE00122CE
:100850008A40404B1A620AE001228A403E4B1A62EB
:1008600005E001228A403D4B1A6200E000BF00BF54
:10087000704730B5034600204800002B06D0012BFE
:1008800013D0022B20D0032B3BD12CE0304CA4689A
:1008900003258540AC432E4DAC602C46A46815461C
:1008A00085402C432A4DAC602CE02A4CA4680325DB
:1008B0008540AC43274DAC602C46A4681546854066
:1008C0002C43244DAC601DE0234CA46803258540D7
:1008D000AC43214DAC602C46A468154685402C43A2
:1008E0001D4DAC600EE01D4CA56803248440A5435B
:1008F0001A4CA560A468154685402C43174DAC6082
:1009000000E000BF00BF30BD02460020002A06D034
:10091000012A09D0022A0CD0032A14D10EE00C4B74
:10092000DB69CB4018460FE00A4BDB69CB40184629
:100930000AE0094BDB69CB40184605E0074BDB6951
:10094000CB40184600E000BF00BFC007C00F704793
:1009500000400440006004400080044000A00440C7
:1009600010B501F0DFF9094908687D21C90001F0DF
:100970008BFA401E06494861FF2088610520086106
:1009800010BDFF2002498861704700001801002057
:1009900000E000E018490A6950211141484300BFB6
:1009A0000146401E0029FBD1704700B5034605E013
:1009B00012481349C8606420FFF7ECFF18465B1E1D
:1009C0000028F5D100BD0C490A6950211141484366
:1009D00000BF0146401E0029FBD1704700B5034609
:1009E00005E006480649C8606420FFF7ECFF18469A
:1009F0005B1E0028F5D100BD00000640AA55FA5A3A
:100A000000000140002806D0042804D8FE4A8300D4
:100A10009B18803BD967704770B500F051FF01F01B
:100A20005CF901F0D5F901F07DF9F8480068102172
:100A30000843F649086040210120FFF7E3FF8021C9
:100A40000220FFF7DFFFC0210320FFF7DBFFE021DB
:100A50000420FFF7D7FFEE4C40202060802060602C
:100A6000C020A060E020E060EA4C40202060082028
:100A70006060A060E0602061E748E34948390860B1
:100A80000120002805DBC206D20E01219140E34A75
:100A9000116000BF0120002809DB00BF00BFC206B3
:100AA000D20E01219140DE4A116000BF00BF00BF9D
:100AB0000220D549483948611F25ED060820054325
:100AC0003220FFF78BFFD048483805614004CE49FB
:100AD00008394862D348C86270BD70470820CA49C7
:100AE0004839886070470420C74948398860704792
:100AF0000220C5494839886070470120C2494839F9
:100B0000886070470120C002BF494839886070473B
:100B100001208002BC4948398860704701204002AA
:100B2000B949483988607047FF200130B6494839D3
:100B300088607047042800D97047B34A303A830070
:100B4000D118002808D1B04A483A526801231B0640
:100B50001A40002A00D0EFE7072252070A6000BFC0
:100B6000EAE710B5B04800680007000F052801D07B
:100B700001F02EF901F0D6F800F083FA10BD10B59F
:100B8000A14848384468A9489F4948398860002CE2
:100B900002D1FFF7E6FF10BD600F400700281AD012
:100BA000E00FC007002804D0FFF7DBFF00F040FA99
:100BB0007AE0012080072040002802D000F04FFAA0
:100BC00072E001204007204000286DD0FFF7C9FFE8
:100BD00000F04CFA68E01F20C0042040002825D017
:100BE0000120C0052040002802D000F051FD5BE04C
:100BF000012080052040002802D000F0A2FD53E033
:100C0000012040052040002802D000F0F2FD4BE01A
:100C10000320C0042040002846D00320C0047A49A5
:100C2000483988600020FFF785FF3DE00F20000273
:100C3000204000281CD0FF2001302040002801D097
:100C4000FFF772FF012040022040002801D0FFF78B
:100C500065FF012080022040002801D0FFF758FFE7
:100C60000120C002204000281ED0FFF74BFF1BE0F0
:100C70002007000F002817D0E007C00F002801D080
:100C8000FFF73BFF02202040002801D0FFF730FF94
:100C900004202040002801D0FFF725FF0820204035
:100CA000002801D0FFF71AFF01208006204000280D
:100CB00009D05548483800680121890708400028B4
:100CC00001D000F0E9F900BF65E759490A695949BF
:100CD0001141084600BF0146401E0029FBD1704764
:100CE00053490A6954491141084600BF0146401E54
:100CF0000029FBD1704700B50620434948394861B7
:100D0000FFF7EEFF0520404948394861FFF7DDFF56
:100D10003D4848384069042188433B494839486187
:100D200000BD002038494839086001204049C860AA
:100D300000BF3F48C068102108401028F9D10220A8
:100D40003B4908610020086033482F494839086052
:100D5000704710B539480069022188433749086156
:100D600037480078012800D110BD00240BE0354839
:100D70003549C8602448483840688903084000283D
:100D800000D1F1E7641C31488442F0D31E48483852
:100D90004068012189070840002800D1E4E71A488B
:100DA000483800690921C90688431749483908614C
:100DB0002248006980210840002801D0FFF78DFEFD
:100DC0000A20FFF700FEFFF7ACFF0F4848384068E5
:100DD000012189070840002802D1FFF7C2FEC3E7BE
:100DE00004201B49086030BFFFF7BBFE13480069B1
:100DF00018490840884236D1104800690121890409
:100E000088430E49086127E048C0054000E00540DE
:100E10001C0100202C010020100000B080E200E046
:100E200000E100E00440000000200640FFFFFBFE60
:100E30000000064080380100DC0500004001002071
:100E4000F4000020AA55FA5A00000140E07509009C
:100E5000402003408000040008468068012802D139
:100E6000FFF749FF80E7FFF77CFE00BF7CE76C4996
:100E7000C96B012282409143694AD16370470428BB
:100E800000D97047664A18328300D11800220A60E0
:100E900000BFF6E7042800D97047614A1832830082
:100EA000D11812070A6000BFF6E710B5042800D970
:100EB00010BD5B4B183384001A1905235B070B43E5
:100EC000136000BFF4E75649803148600221544A5C
:100ED0008032D16000BF52498031C968022211407E
:100EE0000029F8D14E49803189684E4A1160704717
:100EF00070B506460B46402B10D2701E80004A4942
:100F00000858990844182046FFF7DDFF9807C10EDE
:100F100044480068C840C5B2284670BD0020FCE7C0
:100F200070B506460B46102B0CD2701E80003E4951
:100F30000858990044182046FFF7C5FF394805684E
:100F4000284670BD0020FCE7354A80325060916031
:100F50000122334B8033DA6000BF314A8032D268DD
:100F6000D207D20F002AF8D17047F8B506460C46D2
:100F70001746402C1BD2701E80002B490858A10830
:100F8000401800900098FFF79EFF26480568A007CC
:100F9000C10EFF208840294681430D46A007C10E9F
:100FA00038468840054329460098FFF7CDFFF8BD35
:100FB000F0B505460C461646102C09D2681E800076
:100FC00019490858A100471831463846FFF7BCFFB9
:100FD000F0BD1349403188630221114A803211600B
:100FE00000BF0F4980310968022211400029F8D161
:100FF0000B494031C96B0D4A11607047084A4032B5
:101000009063D1630122064B80331A6000BF044A0B
:1010100080321268D207D20F002AF8D17047000040
:1010200000C00540100100201C0100200801002024
:1010300010B50020C043FE4988600120FD490861C9
:1010400000208860FA49C860FFF774FD012403E0BE
:101050002046FFF714FF641C042CF9D910BDF54895
:10106000006902210843F34908617047F1480069AB
:1010700004210843EF49086101204007EC498860DA
:101080007047EB4800690921C9060843E84908612F
:10109000012040068860704701208006E44988608E
:1010A000704770B5E3488068012823D1E24D0024E1
:1010B00002E000202855641C042CFAD9DD48007990
:1010C000032817DCDB488078002813D1D949097937
:1010D000DA4A5054D7490879FFF7C9FED548006964
:1010E000012109040843D349086100210846FFF79C
:1010F000DCFE70BD0020FFF71DFD00BFF9E710B555
:10110000CC48806801281BD1CA480078812817D1B3
:10111000C8480079032813DCC6480079C7490C5C2D
:1011200021460020FFF76AFFC24800690121C90378
:101130000843C049086101210020FFF7B6FE10BD39
:101140000020FFF7F7FC00BFF9E770B5BA4DB948CA
:10115000006920210840002851D0B6488078002836
:101160001DD1B44988600846006910210843B1497F
:101170000861012405E0012028552046FFF77FFE85
:10118000641C042CF7D9AB48006901210904084309
:10119000A849086100210846FFF787FE70BDA548F1
:1011A000807801282BD1A349886008460069102166
:1011B0008843A0490861002413E000202855002C32
:1011C0000ED02046FFF766FE99480069611EC840B0
:1011D000C007C00F002803D000212046FFF765FE9E
:1011E000641C032CE9D993480069012109040843D0
:1011F0009049086100210846FFF757FECEE700201E
:10120000FFF798FC00BFC9E710B58A488168002045
:10121000FFF7F4FE8748806801280AD1012403E023
:101220002046FFF737FE641C032CF9D90420FFF792
:1012300031FE0020824908607E480069032189034D
:1012400008437C49086101210020FFF72EFE10BDF4
:1012500010B50020FFF76EFC10BDF0B504461D066A
:101260002D0E2D061604FF273F043E4035430E0287
:101270003F123E403543E6B235432846F0BDF8B54F
:10128000704804686B48C0886D490968884203D279
:101290006848C0886A49086069480068002813D116
:1012A00000210846FFF701FE67480068402803D187
:1012B00000206549086039E05D488069012109071F
:1012C00008435B49886131E000250DE0E378A278AE
:1012D00061782078FFF7C1FF0646A8003146FFF786
:1012E0008DFE241D681CC5B2102DEFDB544800682C
:1012F000554908605248006840280ED3402100201C
:10130000FFF7D3FD4F48006840304E4908604C4815
:10131000006840384A49086008E049480068C1B29E
:101320000020FFF7C2FD002045490860F8BD70B5F8
:101330000025002428E03F48C1780C206043434A40
:10134000105C81421FD13B4801790C20604380181A
:101350004078814217D1374881780C20604380184B
:10136000807881420FD10C2060431146401880885C
:10137000334908600C2060431146401880683149A9
:101380000860012502E0641C122CD4D300BF002D9C
:1013900003D10020FFF7CEFB70BD26480069012174
:1013A000C903084323490861FFF769FF00BFF3E75A
:1013B00010B520480069202188431E49086108466D
:1013C0000069402108431B490861084680780028CD
:1013D00005D00846006920210843164908611548D0
:1013E00080781449087308460069012109040843FC
:1013F0001049086100210846FFF757FD10BD70B580
:101400000C48007845066D0E0A4800788021084097
:10141000002802D00020FFF78DFB002D21D10548C8
:101420008078012842D1034800690949084311E046
:1014300000C0054040010020E0000020F000002036
:10144000EC000020E8000020F800002058220000F6
:1014500080010100FE49086100210846FFF725FDD3
:1014600070BD022D1FD1FA48807800281ED1F8489F
:1014700000794406640E002C18D0042C16D8F448C9
:101480008068012812D1F34908552046FFF752FB26
:10149000EF480069E9030843ED4908610021084667
:1014A000FFF703FDDCE70020FFF744FB00BFD7E7B1
:1014B00070B5E748007845066D0EE5480078802154
:1014C0000840002802D00020FFF734FB002D14D183
:1014D000DF488078012845D1DD48006980218843B4
:1014E000DB49086108460069DB490843D8490861BF
:1014F00000210846FFF7D9FC70BD022D32D1D44837
:10150000807800282ED1D24800794406640E002C41
:1015100013D1CF48006920210840002822D00020A4
:10152000CC490870CA480069E9030843C849086102
:1015300000210846FFF7B9FCDEE7042C12D8C448A6
:10154000806801280ED10020C2490855C0480069B2
:10155000012109040843BE49086100210846FFF73C
:10156000A4FCC9E700BFC7E770B5B94800784406D6
:10157000640EB748007880210840802802D00020FF
:10158000FFF7D8FA002C1AD1B14800698021084031
:10159000002804D002210020FFF730FD03E00021E5
:1015A0000846FFF72BFDAA4800690121C90308433B
:1015B000A749086102210020FFF777FC70BD012CCC
:1015C0001AD1A348806801282FD1A148407900286A
:1015D0002BD19F480079032827DC00210846FFF71C
:1015E0000DFD9B480069E103084399490861022108
:1015F0000020FFF75AFCE1E7022C16D1944800794D
:1016000045066D0E042D10D89248465D31460020E7
:10161000FFF7F4FC8E480069A10308438C49086178
:1016200002210020FFF741FCC8E700BFC6E710B564
:1016300087484078030000F00AFD0C070A250D25B5
:10164000101316191C1F2225FFF78EFF1EE0FFF74F
:101650002FFF1BE0FFF7D3FE18E0FFF7A9FE15E010
:10166000FFF765FE12E0FFF7F3FD0FE0FFF7CCFD9B
:101670000CE0FFF76AFD09E0FFF741FD06E0FFF728
:1016800010FD03E00020FFF755FA00BF00BF10BDBA
:101690001CB53320C004714988600020FFF7FAFBB5
:1016A0006E484068012189040840002840D16848FC
:1016B00000690321C9038843654908610020FFF7D9
:1016C00088FC6748006801900420FFF782FC6448AA
:1016D000006800905E4901980870FF210902019896
:1016E0000840000A5A494870FF210904019808403F
:1016F000000C574988700198000EC8700098087156
:10170000FF21090200980840000A514948710098D9
:10171000000CC8800846047860210C40002C02D1DF
:10172000FFF785FF1CBD202C06D100F0B1FAF9E7C8
:1017300001208004494988600020FFF7FBF900BFC1
:10174000F0E710B501208005444988604548807C59
:1017500002281AD10020434988740846406942494A
:1017600088420FD13F488069404988420AD100240D
:1017700004E0A0000021FFF741FC641C402CF8D3DA
:10178000FEF7F0FC04203749887431480069402195
:101790000840002813D02E48006988432C4908616E
:1017A0000846007B2D49C8600020FFF7C3F9284890
:1017B00000690121090488432549086110BD2448B6
:1017C000C088002810D0224800690121090408407F
:1017D000002809D1FFF753FD1D48006901210904C4
:1017E00088431B490861E9E70020FFF7A3F900BF20
:1017F000E4E710B501204005184988601948807C4D
:10180000012811D1002409E0A000FFF7E2FB1448F1
:101810000168A200134814308150641C102CF3D3CB
:101820000220104988742AE00E48406D01214902C7
:101830000840002823D00B48406D8843094948657B
:101840000020FFF7C6FB06480068064908700FE055
:1018500040010020E00000200001010000C0054020
:101860000801002054010020AA55A55AFF0033CCDE
:101870000846406D01214903084323494865234830
:1018800000690121C9030840002804D1002108464D
:10189000FFF70BFB0CE01E484068012109060840D9
:1018A000002805D11A488069C90008431849886191
:1018B000164800690121C90388431449086110BD15
:1018C000002003E00021134A1154401C0528F9D3DD
:1018D000002003E00021104A1154401C0428F9D3D1
:1018E00000210A4A117051709170D17011715171BB
:1018F000D18091601173114609690122520411438C
:10190000024A11617047000054010020400100208C
:1019100000C00540E0000020F0000020F7B50446BC
:1019200015462048A10046183068C00FC00700289F
:1019300001D10220FEBD002C03D0042C01D8402D83
:1019400001D90420F6E73068400F40070121C9079C
:10195000884224D11448005D00281BD1A0001349FF
:1019600046183068A84201D20520E3E7601E8000D7
:101970000F490F58019801683846FFF7E5FA0198BA
:101980004168381DFFF7E0FAE9B22046FFF78DFA0B
:101990000020CFE72046FFF7CDF80320CAE701205B
:1019A000C8E7000018C00540E00000202C0100201E
:1019B0001C01002010B5CD480078212825D1CC4845
:1019C000406D012109030843C9494865C7480079AA
:1019D00002281ADCC5488078002806D10846406DE8
:1019E000032189028843C2494865C0488078C049BC
:1019F0004874BE480069012109040843BB490861D5
:101A000000210846FFF751FA10BD0020FFF792F8B9
:101A100000BFF9E710B5B5480078212819D1B348BF
:101A20000069012109040843B0490861B048406DCC
:101A30000121C9020843AE494865AC480079012834
:101A400007DCAA48C078087400210846FFF72DFA81
:101A500010BD0020FFF76EF800BFF9E710B50120B8
:101A6000A349887400210846FFF71FFA10BD10B57E
:101A70009E4800690121090408439C4908619C486B
:101A8000406D0121490208439949486500210846F3
:101A9000FFF70BFA10BD10B594480078212815D136
:101AA00092480079002803D09048007903280DD18E
:101AB0008E48C078022802D1FFF7D9FF10BD8B48AD
:101AC000C078032802D1FFF7C9FFF7E70020FFF72E
:101AD00031F800BFF2E710B584480078A1281ED184
:101AE0008348406D012109030840002802D10120EC
:101AF0007F4948747D480079022810DC7C48417C8D
:101B00000020FFF77BFA794800690121C9030843E7
:101B10007649086101210020FFF7C7F910BD0020B8
:101B2000FFF708F800BFF9E710B570480078A12862
:101B30001CD16F48406D0121C90208436C494865BA
:101B40006A4800790043002810D10846017C002033
:101B5000FFF754FA654800690121C9030843634946
:101B6000086101210020FFF7A0F910BD0020FEF759
:101B7000E1FF00BFF9E710B500205E4908605B484F
:101B800000690121C9030843584908610521002063
:101B9000FFF78BF910BD10B5002056490860534877
:101BA00000690121C903084350490861052100204B
:101BB000FFF77BF910BD10B500210846FFF775F956
:101BC00010BD10B54A4801780020FFF717FA4748C2
:101BD00000690121C903084344490861012100202B
:101BE000FFF763F910BD10B50020424908603F4877
:101BF00000690121C90308433C490861082100200C
:101C0000FFF753F910BD10B538480078A1283AD134
:101C100036488068012836D134480079002814D12C
:101C20003248C078012802D1FFF7DDFF10BD2F48F0
:101C3000C078022802D1FFF7C4FFF7E72B48C0782D
:101C4000032820D1FFF7B7FFF0E7284800790128E3
:101C50000AD12748407C012815D12448C0780128A2
:101C600011D1FFF798FFE1E72048007902280AD157
:101C70001F48407C012806D11C48C078012802D1A9
:101C8000FFF779FFD2E70020FEF754FF00BFCDE752
:101C900010B516484078030000F0D9F90C19070A6E
:101CA0000D191919191910131619FFF7ACFF12E0C5
:101CB000FFF73AFF0FE0FFF70EFF0CE0FFF7EBFE38
:101CC00009E0FFF7A7FE06E0FFF774FE03E000203F
:101CD000FEF730FF00BF00BF10BD7D20044908742F
:101CE0000120487400208874486570474001002036
:101CF00054010020EC00002006480047FEE7FEE704
:101D0000FEE7FEE7FEE7FEE703480449024A044B0C
:101D100070470000C10000001002002010040020E5
:101D20001002002010B54148C068C006C00F00284E
:101D300002D001280DD107E03C480068012802D1FB
:101D40003B483C49086005E07D20000239490860B5
:101D500000E000BF00BF354800694007400F0300A6
:101D600000F075F9080507090B0D0F111315012473
:101D70000EE002240CE004240AE0082408E0102409
:101D800006E0202404E0402402E0802400E000BFBC
:101D900000BF21462748006800F076F82549086012
:101DA000084600682449884203D924482449086029
:101DB0000DE0204800682349884204D91F48801E4E
:101DC0001F49086003E01D48401F1D49086010BD01
:101DD0001A48401E1A490860401C08600120134937
:101DE000086000BF11488068C007C00F0028F9D004
:101DF00000200E49C86000BF0C48C0687021084030
:101E00000028F9D109480069C008C000801C0749B2
:101E100008610846C06940084000401CC861084687
:101E2000006A40084000401C0862704700000640FD
:101E3000006CDC021801002000366E010500FA5A21
:101E400000200640001BB70001E004C0091F042960
:101E5000FBD28B0701D50280801CC90700D002701D
:101E6000704700290BD0C30702D00270401C491EE6
:101E7000022904D3830702D50280801C891EE3E770
:101E80000022EEE70022DFE7002203098B422CD379
:101E9000030A8B4211D300239C464EE003460B43BA
:101EA0003CD4002243088B4231D303098B421CD31C
:101EB000030A8B4201D394463FE0C3098B4201D30E
:101EC000CB01C01A524183098B4201D38B01C01A46
:101ED000524143098B4201D34B01C01A52410309BD
:101EE0008B4201D30B01C01A5241C3088B4201D36C
:101EF000CB00C01A524183088B4201D38B00C01A19
:101F0000524143088B4201D34B00C01A5241411A3F
:101F100000D201465241104670475DE0CA0F00D022
:101F20004942031000D34042534000229C4603091B
:101F30008B422DD3030A8B4212D3FC22890112BAA1
:101F4000030A8B420CD3890192118B4208D3890179
:101F500092118B4204D389013AD0921100E0890991
:101F6000C3098B4201D3CB01C01A524183098B4272
:101F700001D38B01C01A524143098B4201D34B015B
:101F8000C01A524103098B4201D30B01C01A5241BE
:101F9000C3088B4201D3CB00C01A524183088B4245
:101FA00001D38B00C01A5241D9D243088B4201D3CE
:101FB0004B00C01A5241411A00D2014663465241B9
:101FC0005B10104601D34042002B00D549427047B8
:101FD00063465B1000D3404201B50020C046C046B6
:101FE00002BD704770477047754600F025F8AE4651
:101FF000050069465346C008C000854618B020B5A4
:10200000FFF782FE60BC00274908B6460026C0C51F
:10201000C0C5C0C5C0C5C0C5C0C5C0C5C0C5403DA0
:1020200049008D46704710B50446C046C04620465C
:10203000FEF791F810BD000000487047AC01002089
:1020400001491820ABBEFEE726000200704730B4FD
:102050007446641E2578641CAB4204D3635D5B0048
:10206000E31830BC18471D46F8E7000012010002D3
:1020700000000040450C437004010102000105010D
:102080000906A101050719E029E7150025017501D9
:10209000950881029501750881019505750109086A
:1020A000190129059102950175039101950675089D
:1020B000150026FF00050719002A65008100C000F1
:1020C000410005010902A10185010901A1000509DD
:1020D0001901290315002501950575018102950156
:1020E0007503810105010930093109381581257F02
:1020F000750895038106C0C03600050C0901A101D1
:102100008501150025019520750109B509B609B7A6
:1021100009CD09E009E209E309E409E509E909EA69
:102120000A52010A53010A54010A55010A8A010A96
:1021300021020A23020A24020A25020A26020A2789
:10214000020A2A020A92010A94010A83010A02027F
:102150000A03020A07020A18020A1A0209B88102CF
:10216000C005010980A10185021981298315002577
:1021700001750195038102750595018101C0060075
:10218000FF0901A10185031AF1002AF800150025B5
:1021900001750895028102C09E000613FF0901A186
:1021A00001150026FF007508954009028102090308
:1021B00091020A00FFB102C01E0009026D00040175
:1021C00000A03209040000010301010009211101EE
:1021D00000012241000705810308000809040100ED
:1021E0000103010200092111010001223600070547
:1021F0008203080001090402000103000000092114
:1022000011010001229E000705830308000809044C
:1022100003000103000000092111010001221E003A
:1022200007050403080001040309040C0353004FCD
:10223000004E00690058001603550053004200206C
:10224000004400450056004900430045000A03448D
:102250000045004D004F000001000000120000008A
:102260006C200000020000006D000000BA21000098
:102270000300000004000000272200000309000002
:102280000400000027220000030001000C000000F1
:102290002B220000030901000C0000002B2200008B
:1022A00003000200160000003722000003090200AC
:1022B00016000000372200000500000007000000A3
:1022C000D52100000500000007000000D521000016
:1022D0002100000009000000CC21000021010000C5
:1022E00009000000E52100002102000009000000B3
:1022F000FE21000021030000090000001722000059
:1023000022000000410000007E20000022010000A9
:1023100036000000C2200000220200009E000000E3
:10232000FA200000220300001E0000009A21000095
:1023300004800000000000201C01000004010000D7
:10234000208100001C010020F40200002001000098
:10235000000000000000000000000000000000007D
:10236000000000000000000000000000000000006D
:10237000000000000000000000000000000000005D
:10238000000000000000000000000000000000004D
:107FF00000000000000000000000000000BF00BF03
:1080000000BF00BF000000000000000000000000F2
:10801000000000000000000000000000000000035D
:10802000040303010F010E010D0106000800090001
:108030000A000B000C000D000E01000101010201FD
:10804000030104010503060305020F030B030A03E2
:10805000090308030729352B390201001E140464A3
:10806000083A1F1A161D043B2008071B003C211567
:108070000906003D22170A190040250C0E10004188
:1080800026120F3600422713333740432D2F343842
:1080900080442E30340065452A0028201046494C83
:1080A000000050474A4D005251484B4E00004F00CF
:1080B000535F5C59000054605D5A620055615E5B1D
:1080C000630056570058003E231C0B052C3F241814
:1080D0000D1100070B21020405060108090A201EE4
:1080E0001F20100000000000000000000000000041
:1080F0000000000000000000000000000000000080
:10810000000000000000000000000000000000006F
:10811000000000000000000000000000000000005F
:020000040000FA
:04FFFC005555AAAA03
:04000005000000C136
:00000001FF
